:100000000C94A6000C94CF040C94A8040C94CE007D
:100010000C94CE000C94CE000C94CE000C94CE0028
:100020000C94CE000C94CE000C94CE000C94CE0018
:100030000C94CE000C94CE000C94CE000C94CE0008
:100040000C945E040C94CE000C942C040C940604C6
:100050000C94CE000C94CE000C94CE000C94CE00E8
:100060000C94CE000C94CE0008000000BE922449EF
:10007000123EABAAAA2ABECDCCCC4C3E00000080DA
:10008000BEABAAAAAA3E00000000BF000000803F4D
:100090000000000000084178D3BB4387D1133D190D
:1000A0000E3CC3BD4282AD2B3E68EC8276BED98F3A
:1000B000E1A93E4C80EFFFBE01C4FF7F3F0000007E
:1000C000000000000000240027002A0000000000BB
:1000D000250028002B000000000023002600290036
:1000E00004040404040404040202020202020303DE
:1000F00003030303010204081020408001020408E6
:100100001020010204081020000000080002010075
:100110000003040700000000000000005665727331
:10012000696F6E20322C204D61726368203230314D
:100130003300445331333032205265616C205469AE
:100140006D6520436C6F636B0000F60411241FBEC5
:10015000CFEFD8E0DEBFCDBF22E0A6EAB1E001C01C
:100160001D92AE39B207E1F711E0A0E0B1E0E6EE92
:10017000FEE102C005900D92A63AB107D9F710E052
:10018000C6EAD0E004C02197FE010E94C50CC53A22
:10019000D107C9F70E9435050C94710F0C9400002B
:1001A000E9EBF1E0A089B18982E08C93A485B58563
:1001B0001C92A685B7858FEC8C93108EA489B58987
:1001C00086E08C93A289B3898C9180618C93A289FB
:1001D000B3898C9188608C93A289B3898C91806853
:1001E0008C930288F389E02D80818F7D8083089530
:1001F000E091B901F091BA010190F081E02D682FF2
:1002000089EB91E00994CF92DF92EF92FF920F93E6
:100210001F93CF93DF936C017A018B01C0E0D0E094
:10022000CE15DF0589F0D8016D918D01D601ED91D4
:10023000FC910190F081E02DC6010995892B11F404
:100240007E0102C02196ECCFC701DF91CF911F91B3
:100250000F91FF90EF90DF90CF900895089508954B
:10026000089580E090E00895FC01538D448D252F82
:1002700030E0842F90E0821B930B541710F0CF9640
:10028000089501970895FC01918D828D981761F072
:10029000828DDF01A80FB11D5D968C91928D9F5FBD
:1002A0009F73928F90E008958FEF9FEF0895FC0168
:1002B000918D828D981731F0828DE80FF11D858D1B
:1002C00090E008958FEF9FEF0895FC01918D228DAE
:1002D000892F90E0805C9F4F821B91098F73992733
:1002E000089589EB91E00E94650121E0892B09F4D2
:1002F00020E0822F0895FC01848DDF01A80FB11D3D
:10030000A35ABF4F2C91848D90E001968F7399274B
:10031000848FA689B7892C93A089B1898C91806438
:100320008C93938D848D981306C00288F389E02DF9
:1003300080818F7D80830895EF92FF920F931F93AA
:10034000CF93DF93EC0181E0888F9B8D8C8D981388
:1003500005C0E889F989808185FD24C0F62E0B8DC2
:1003600010E00F5F1F4F0F731127E02E8C8DE812E6
:100370000CC00FB607FCFACFE889F989808185FFA8
:10038000F5CFCE010E947B01F1CF8B8DFE01E80FEE
:10039000F11DE35AFF4FF0820B8FEA89FB898081C0
:1003A000806207C0EE89FF896083E889F9898081CE
:1003B0008064808381E090E0DF91CF911F910F9165
:1003C000FF90EF900895CF93DF93EC01888D882301
:1003D000C9F0EA89FB89808185FD05C0A889B989B2
:1003E0008C9186FD0FC00FB607FCF5CF808185FF8D
:1003F000F2CFA889B9898C9185FFEDCFCE010E94FB
:100400007B01E7CFDF91CF91089580E090E0892BC9
:1004100029F00E94710181110C940000089583302D
:1004200081F028F4813099F08230A1F0089587306E
:10043000A9F08830B9F08430D1F4809180008F7DAC
:1004400003C0809180008F7780938000089584B5E9
:100450008F7702C084B58F7D84BD08958091B000F0
:100460008F7703C08091B0008F7D8093B000089596
:10047000CF93DF93282F30E0F901E85FFE4F84919E
:10048000F901EC50FF4FD491F901E052FF4FC491B4
:10049000CC2391F081110E940F02EC2FF0E0EE0FBF
:1004A000FF1FEA52FF4FA591B491EC91ED2381E03B
:1004B00090E021F480E002C080E090E0DF91CF91F5
:1004C00008951F93CF93DF93282F30E0F901E85F61
:1004D000FE4F8491F901EC50FF4FD491F901E052A5
:1004E000FF4FC491CC23C9F0162F81110E940F0237
:1004F000EC2FF0E0EE0FFF1FE453FF4FA591B491F6
:100500008FB7F894111105C09C91ED2FE095E92368
:1005100002C0EC91ED2BEC938FBFDF91CF911F9137
:100520000895CF93DF9390E0FC01EC50FF4F2491AE
:10053000FC01E052FF4F8491882361F190E0880F25
:10054000991FFC01EE53FF4FC591D491FC01E45378
:10055000FF4FA591B491611109C09FB7F8948881AC
:10056000209582238883EC912E230BC0623061F4A6
:100570009FB7F8943881822F809583238883EC91EC
:100580002E2B2C939FBF06C08FB7F894E8812E2B9B
:1005900028838FBFDF91CF9108953FB7F894809162
:1005A000AB019091AC01A091AD01B091AE0126B527
:1005B000A89B05C02F3F19F00196A11DB11D3FBF9B
:1005C000BA2FA92F982F8827820F911DA11DB11D29
:1005D000BC01CD0142E0660F771F881F991F4A9525
:1005E000D1F708952FB7F8946091A7017091A801F1
:1005F0008091A9019091AA012FBF08958F929F9297
:10060000AF92BF92CF92DF92EF92FF926B017C018B
:100610000E94F2024B015C01C60ED71EE81EF91EB5
:100620000E94F202681579058A059B0528F0C61616
:10063000D706E806F906A0F7FF90EF90DF90CF907D
:10064000BF90AF909F908F900895FF920F931F934C
:10065000CF93DF93F62EC0E0D0E0082F10E0C80162
:100660000C2E02C0959587950A94E2F7682F617069
:1006700087E00E94610261E086E00E94610260E022
:10068000FF2039F0C730D10521F487E00E949102A4
:1006900003C086E00E9461022196C830D105F9F6B8
:1006A000DF91CF911F910F91FF90089560E088E056
:1006B0000E9461028BE090E00197F1F7089560E0FD
:1006C00088E00E94610261E088E00E94910260E09F
:1006D00086E00E94610261E086E00E94910261E092
:1006E00087E00E94910261E088E00E9461028BE055
:1006F00090E00197F1F708950E94CB0C6115710508
:1007000079F0FB0101900020E9F73197AF01461B1A
:10071000570BDC01ED91FC910280F381E02D0994EF
:1007200080E090E008950F931F93CF93DF938C01A7
:10073000C0E0D0E0F801EC0FFD1F6491662371F07A
:10074000E091B901F091BA010190F081E02D89EBBF
:1007500091E00995892B11F02196ECCF65E271E0CB
:1007600089EB91E00E947E038C0F9D1FDF91CF915A
:100770001F910F9108954F925F926F927F92EF9227
:10078000FF920F931F93CF93DF93CDB7DEB7A1975F
:100790000FB6F894DEBF0FBECDBF7C01FA01CB01CE
:1007A00019A2223008F42AE08E010F5D1F4F422E5D
:1007B000512C612C712CBF01A30192010E94CF0A20
:1007C000F901CA01015011096A3014F4605D01C0D9
:1007D000695CD8016C93232B242B252B61F7B8017E
:1007E000C7010E947E03A1960FB6F894DEBF0FBE2C
:1007F000CDBFDF91CF911F910F91FF90EF907F9030
:100800006F905F904F9008950C947E031F920F920B
:100810000FB60F9211242F933F934F935F936F93D3
:100820007F938F939F93AF93BF93EF93FF9389EB46
:1008300091E00E947B01FF91EF91BF91AF919F9159
:100840008F917F916F915F914F913F912F910F9079
:100850000FBE0F901F9018951F920F920FB60F9218
:1008600011242F938F939F93EF93FF93E091C901EE
:10087000F091CA018081E091CF01F091D00182FD19
:1008800012C090818091D2018F5F8F732091D3012C
:10089000821751F0E091D201F0E0E754FE4F958FBE
:1008A0008093D20101C08081FF91EF919F918F9140
:1008B0002F910F900FBE0F901F9018951F920F92BF
:1008C0000FB60F9211242F933F938F939F93AF9363
:1008D000BF938091A7019091A801A091A901B09127
:1008E000AA013091A60123E0230F2D3720F40196B1
:1008F000A11DB11D05C026E8230F0296A11DB11D43
:100900002093A6018093A7019093A801A093A90129
:10091000B093AA018091AB019091AC01A091AD017F
:10092000B091AE010196A11DB11D8093AB019093D2
:10093000AC01A093AD01B093AE01BF91AF919F9177
:100940008F913F912F910F900FBE0F901F90189590
:100950001F920F920FB60F9211242F933F934F9334
:100960005F936F937F938F939F93AF93BF93EF9317
:10097000FF93E0910201F09103010995FF91EF913E
:10098000BF91AF919F918F917F916F915F914F91A7
:100990003F912F910F900FBE0F901F9018951F92AF
:1009A0000F920FB60F9211242F933F934F935F93A3
:1009B0006F937F938F939F93AF93BF93EF93FF9327
:1009C000E0910001F09101010995FF91EF91BF9134
:1009D000AF919F918F917F916F915F914F913F91D7
:1009E0002F910F900FBE0F901F901895E9EBF1E03B
:1009F0001382128288EE93E0A0E0B0E084839583B6
:100A0000A683B78388E091E09183808385EC90E0B2
:100A10009587848784EC90E09787868780EC90E0C8
:100A2000918B808B81EC90E0938B828B82EC90E0B9
:100A3000958B848B86EC90E0978B868B118E128E33
:100A4000138E148EE6E5F2E0168217821086118668
:100A5000128613861486158616861786108A118AC2
:100A6000128A138A148A158A0895CF93DF93CDB71B
:100A7000DEB7CE55D1090FB6F894DEBF0FBECDBF9D
:100A8000789484B5826084BD84B5816084BD85B569
:100A9000826085BD85B5816085BD80916E00816075
:100AA00080936E001092810080918100826080931B
:100AB000810080918100816080938100809180001D
:100AC0008160809380008091B10084608093B10048
:100AD0008091B00081608093B00080917A00846042
:100AE00080937A0080917A00826080937A0080916E
:100AF0007A00816080937A0080917A008068809388
:100B00007A001092C10010929A0210929B021092E9
:100B10009C0210929D02109258021092590210925B
:100B20005A0210925B0268EB7BE080E090E00E944A
:100B3000FE0289EB91E090939902809398020E94C3
:100B4000D0000E94F2026093580270935902809381
:100B50005A0290935B0266E171E080919802909155
:100B600099020E9404046AE070E080E090E00E9434
:100B7000FE0281E080936C0261E08DE00E949102B0
:100B800062E082E00E9491020E94D00082E391E044
:100B90000E9493038CE191E00E9493030E945F0303
:100BA00060E08EE80E94250360E080E00E9425035B
:100BB0000E9456030E945F0360E080E90E942503C3
:100BC00060E080E00E9425030E9456038E010F5FC3
:100BD0001F4F88E0D8011D928A95E9F789818F78A7
:100BE000806389838A818078826080658A838B8133
:100BF000807C83618B838C81807C88618C838D81F8
:100C0000807F816080618D838E81887F86608E8306
:100C100087E18F830E945F0360E08EEB0E942503D3
:100C200078016E01B9E0CB0ED11C60E0F701819133
:100C30007F010E942503EC14FD04B9F70E945603BE
:100C40008EE291E090930101809300018091690010
:100C50008C7F816080936900E89A21E530E02C0F59
:100C60003D1F285F3F4F6B963FAF2EAF6B970E94A3
:100C7000F202672B682B692B41F40E94F20262306A
:100C800071058105910508F40FC10E94F20260937D
:100C9000B5017093B6018093B7019093B801C090ED
:100CA000B101D090B201E090B301F090B4016C15A5
:100CB0007D058E059F0540F46093B1017093B201EC
:100CC0008093B3019093B401C090B101D090B20170
:100CD000E090B301F090B4019B01AC012C193D09E7
:100CE0004E095F0969017A013AEFC316D104E104A4
:100CF000F10408F4D9C06093B1017093B2018093FC
:100D0000B3019093B40184EF91E0A0E0B0E0809350
:100D1000640290936502A0936602B09367021092FA
:100D200068021092690210926A0210926B0280911E
:100D30005C0290915D02A0915E02B0915F0280938F
:100D4000600290936102A0936202B09363020E94DA
:100D5000F20260935C0270935D0280935E02909356
:100D60005F020E94F20260935802709359028093CE
:100D70005A0290935B020E94F2026B017C0168E2CE
:100D800071E080919802909199020E9404042AE0F7
:100D900041E050E060E070E080919802909199020B
:100DA0000E94BB036FE271E08091980290919902DA
:100DB0000E9404042AE0B701A60180919802909154
:100DC00099020E94BB0361E371E0809198029091C7
:100DD00099020E94040480915C0290915D02A091AE
:100DE0005E02B0915F02B701A601481B590B6A0B66
:100DF0007B0B2AE080919802909199020E94BB039C
:100E000061E371E080919802909199020E9404043C
:100E100040915C0250915D0260915E0270915F02B0
:100E20008091600290916102A0916202B091630290
:100E3000481B590B6A0B7B0B2AE08091980290911A
:100E400099020E94BB0363E371E080919802909144
:100E500099020E9404040E94F202AB01BC012AE044
:100E600080919802909199020E94BB03E0909802B1
:100E7000F090990265E371E0C7010E947E0365E28C
:100E800071E0C7010E947E0362E070E080E090E0C4
:100E90000E94FE020E94F20260935C0270935D0267
:100EA00080935E0290935F020E945F0361E08FEB8C
:100EB0000E942503DE01AF5ABF4F6D01E12CF12CDA
:100EC000B12C61E086E00E94610260E086E00E9451
:100ED000610287E00E943802892B71F081E090E086
:100EE000A0E0B0E00E2C04C0880F991FAA1FBB1F02
:100EF0000A94D2F7B82A0EC081E090E0A0E0B0E0FA
:100F00000E2C04C0880F991FAA1FBB1F0A94D2F78A
:100F10008095B822BFEFEB1AFB0AE8E0EE16F10469
:100F200081F6D601BD926D016B96EEADFFAD6B976C
:100F3000AE17BF0719F60E94560362968FAD6297EF
:100F4000282F229527709AE0F92E8F7090E0F29E5C
:100F5000800D911D11249F938F9363968FAD63979E
:100F6000282F229527708F7090E0F29E800D911DA2
:100F700011249F938F9364968FAD6497282F2295A9
:100F800023708F7090E0F29E800D911D11249F932D
:100F90008F93ACE3B1E0BF93AF931F930F930E9485
:100FA000D00CB80189EB91E00E94040468968FADE3
:100FB0006897282F22952F708F7090E0FAE02F9F6E
:100FC000800D911D11248053984F9F938F936796A6
:100FD0008FAD679787701F928F9366962FAD669738
:100FE00024FB222420F8312CF29CC001F39C900DAC
:100FF00011242F70820F911D9F938F9365968FAD53
:101000006597282F229523708F7090E0F29E800DB7
:10101000911D11249F938F93A4E5B1E0BF93AF93EB
:101020001F930F930E94D00CB80189EB91E00E94AE
:101030007E0365E271E089EB91E00E947E0382E02D
:101040000E9438029093B0018093AF010FB6F894DC
:10105000DEBF0FBECDBF019711F461E001C060E0BB
:101060008DE00E94610280E480937C0080917A0090
:10107000806480937A0080917A0086FDFCCF809115
:1010800078002091790090E0922B6FEF73E0681B5D
:10109000790B072E000C880B990B0E94B2099B015B
:1010A000AC0160E078E280E296E40E94950B20E0DB
:1010B00030E040E251E40E94280B20E030E040E2C2
:1010C00051E40E94950B0E94430C2AEE38E94BE54F
:1010D00051E40E94290B9B01AC0160E070EA8FE7AC
:1010E00095E40E94950B20E030E848E853E40E9424
:1010F000280B6B017C014B015C019B01AC010E9440
:101100008B0C882319F06AE971E01AC026013701B7
:10111000E89477F82FEF3FEF4FE75FE7C301B201A5
:101120000E948B0C811111C02FEF3FEF4FE75FE75B
:10113000C301B2010E94AB0918163CF46EE971E0DC
:1011400089EB91E00E947E037BC02FEF3FEF4FE7DA
:101150005FE4C701B6010E94360C18161CF462EA5F
:1011600071E0EECF2FEF3FEF4FE75FECC701B60125
:101170000E94AB0987FDF3CF20E030E0A901C70151
:10118000B6010E94AB0987FF09C08DE20E94F800FA
:1011900046015701B7FAB094B7F8B0942AE037ED9A
:1011A00043EA5BE3C501B4010E94290B4B015C01DA
:1011B0000E94070C6B017C010E94B0099B01AC01ED
:1011C000C501B4010E94280B4B015C012AE0B70164
:1011D000A60189EB91E00E94BB038EE20E94F80019
:1011E00020E030E040E251E4C501B4010E94110A60
:1011F0004B015C010E94070C6B01E12CF12C2AE0F1
:10120000B701A60189EB91E00E94BB03C701B601BB
:101210000E94B0099B01AC01C501B4010E94280BDA
:1012200020E030E040E251E40E94110A0E94070CE5
:10123000AB0160E070E02AE089EB91E00E94BB0323
:1012400066E271E089EB91E00E9404044091AF01F5
:101250005091B001052E000C660B770B77FF22C072
:101260008DE26C964FAF6C976D965FAF6D976E96F3
:101270006FAF6E976F967FAF6F970E94F8006C9676
:101280004FAD6C976D965FAD6D976E966FAD6E9727
:101290006F967FAD6F9770956095509541955F4FB4
:1012A0006F4F7F4F2AE089EB91E00E94BB0366E21B
:1012B00071E089EB91E00E9404040E94CD024B0191
:1012C0005C0184E6C82ED12CE12CF12C0E94CD02C9
:1012D000DC01CB0188199909AA09BB09883E934012
:1012E000A105B10558F031E0C31AD108E108F108B1
:1012F00048EE840E43E0941EA11CB11CC114D1041D
:10130000E104F10419F783B7817F8C6083BF83B751
:10131000816083BF8EE291E0909301018093000190
:10132000809169008C7F816080936900E89A83B71F
:10133000816083BF889583B78E7F83BF83B78E7F9D
:1013400083BFE8988FE291E09093010180930001C0
:101350000E9405028CCC0E94ED0908F481E00895FA
:10136000E89409C097FB3EF490958095709561953F
:101370007F4F8F4F9F4F9923A9F0F92F96E9BB27F5
:101380009395F695879577956795B795F111F8CF71
:10139000FAF4BB0F11F460FF1BC06F5F7F4F8F4FDC
:1013A0009F4F16C0882311F096E911C0772321F0D2
:1013B0009EE8872F762F05C0662371F096E8862F6A
:1013C00070E060E02AF09A95660F771F881FDAF7C1
:1013D000880F9695879597F90895990F0008550FEE
:1013E000AA0BE0E8FEEF16161706E807F907C0F0AB
:1013F00012161306E407F50798F0621B730B840BB3
:10140000950B39F40A2661F0232B242B252B21F48C
:1014100008950A2609F4A140A6958FEF811D811D2C
:1014200008950E94240A0C94950A0E94870A38F0B5
:101430000E948E0A20F0952311F00C947E0A0C94E1
:10144000840A11240C94C90A0E94A60A70F3959F7D
:10145000C1F3950F50E0551F629FF001729FBB27AB
:10146000F00DB11D639FAA27F00DB11DAA1F649F47
:101470006627B00DA11D661F829F2227B00DA11DFA
:10148000621F739FB00DA11D621F839FA00D611D80
:10149000221F749F3327A00D611D231F849F600DA1
:1014A000211D822F762F6A2F11249F5750409AF0CA
:1014B000F1F088234AF0EE0FFF1FBB1F661F771F56
:1014C000881F91505040A9F79E3F510580F00C9421
:1014D0007E0A0C94C90A5F3FE4F3983ED4F38695E4
:1014E00077956795B795F795E7959F5FC1F7FE2BC1
:1014F000880F911D9695879597F9089597F99F679D
:1015000080E870E060E008959FEF80EC089500248B
:101510000A941616170618060906089500240A9458
:1015200012161306140605060895092E0394000CDE
:1015300011F4882352F0BB0F40F4BF2B11F460FF6D
:1015400004C06F5F7F4F8F4F9F4F089557FD905896
:10155000440F551F59F05F3F71F04795880F97FB77
:10156000991F61F09F3F79F0879508951216130631
:101570001406551FF2CF4695F1DF08C01616170660
:101580001806991FF1CF8695710561050894089595
:10159000E894BB2766277727CB0197F90895A1E246
:1015A0001A2EAA1BBB1BFD010DC0AA1FBB1FEE1FDD
:1015B000FF1FA217B307E407F50720F0A21BB30B28
:1015C000E40BF50B661F771F881F991F1A9469F7A4
:1015D00060957095809590959B01AC01BD01CF0100
:1015E00008952F923F924F925F926F927F928F92C7
:1015F0009F92AF92BF92CF92DF92EF92FF920F93A2
:101600001F93CF93DF93CDB7DEB7CA1BDB0B0FB6AB
:10161000F894DEBF0FBECDBF09942A883988488868
:101620005F846E847D848C849B84AA84B984C884FE
:10163000DF80EE80FD800C811B81AA81B981CE0FF5
:10164000D11D0FB6F894DEBF0FBECDBFED010895DA
:101650005058BB27AA270E94400B0C94950A0E9461
:10166000870A38F00E948E0A20F039F49F3F19F45F
:1016700026F40C94840A0EF4E095E7FB0C947E0AA1
:10168000E92F0E94A60A58F3BA1762077307840766
:10169000950720F079F4A6F50C94C80A0EF4E095AD
:1016A0000B2EBA2FA02D0B01B90190010C01CA011C
:1016B000A0011124FF27591B99F0593F50F4503EC7
:1016C00068F11A16F040A22F232F342F4427585FB9
:1016D000F3CF469537952795A795F0405395C9F7D1
:1016E0007EF41F16BA0B620B730B840BBAF0915089
:1016F000A1F0FF0FBB1F661F771F881FC2F70EC028
:10170000BA0F621F731F841F48F4879577956795FA
:10171000B795F7959E3F08F0B0CF9395880F08F0E6
:101720009927EE0F9795879508950E94A90B0C9421
:10173000950A0E948E0A58F00E94870A40F029F408
:101740005F3F29F00C947E0A51110C94C90A0C9445
:10175000840A0E94A60A68F39923B1F3552391F3F2
:10176000951B550BBB27AA2762177307840738F010
:101770009F5F5F4F220F331F441FAA1FA9F335D06D
:101780000E2E3AF0E0E832D091505040E695001C21
:10179000CAF72BD0FE2F29D0660F771F881FBB1FDB
:1017A000261737074807AB07B0E809F0BB0B802DB9
:1017B000BF01FF2793585F4F3AF09E3F510578F0E5
:1017C0000C947E0A0C94C90A5F3FE4F3983ED4F36C
:1017D000869577956795B795F7959F5FC9F7880FB9
:1017E000911D9695879597F90895E1E0660F771F0B
:1017F000881FBB1F621773078407BA0720F0621B9C
:10180000730B840BBA0BEE1F88F7E09508950E94C6
:10181000AE0A88F09F5798F0B92F9927B751B0F0CA
:10182000E1F0660F771F881F991F1AF0BA95C9F764
:1018300014C0B13091F00E94C80AB1E008950C9430
:10184000C80A672F782F8827B85F39F0B93FCCF3E3
:10185000869577956795B395D9F73EF490958095E1
:10186000709561957F4F8F4F9F4F08950E94ED09AE
:1018700008F48FEF089516F00C94900C0C94840AE1
:1018800068940C947E0A0E94AE0AA8F39923C1F3CF
:10189000AEF3DF93CF931F930F93FF92C92FDD27F2
:1018A00088232AF02197660F771F881FDAF720E038
:1018B00030E040E85FEB9FE3883920F0803E38F06D
:1018C00021968F770E94290BE8E6F0E004C00E9481
:1018D000290BE5E9F0E00E949E0C8B01BE01EC01B2
:1018E000FB2E6F5771097595771F880B990B0E9416
:1018F000B20928E132E741E35FE30E94240AAF2DF9
:101900009801AE01FF900F911F91CF91DF910E943E
:10191000400B0C94950A0E94ED09880B990B0895D1
:101920009F3F31F0915020F4879577956795B79553
:10193000880F911D9695879597F90895DF93CF931A
:101940001F930F93FF92EF92DF927B018C016894BB
:1019500006C0DA2EEF010E94240AFE01E894A59148
:101960002591359145915591A6F3EF010E94400BC9
:10197000FE019701A801DA9469F7DF90EF90FF90DC
:101980000F911F91CF91DF910895EE0FFF1F0590EA
:10199000F491E02D099481E090E0F8940C94710F9B
:1019A000AEE0B0E0E6EDFCE00C94FF0A0D891E8984
:1019B00086E08C831A8309838FEF9FE79E838D8354
:1019C000AE01475E5F4F6F89788DCE0101960E9410
:1019D000F30C2F813885F801E20FF31F10822E9649
:1019E000E4E00C941B0BACE0B0E0E9EFFCE00C94FD
:1019F000F10A7C016B018A01FC0117821682838146
:101A000081FFBDC1CE0101964C01F7019381F60122
:101A100093FD859193FF81916F01882309F4ABC1F8
:101A2000853239F493FD859193FF81916F01853261
:101A300029F4B70190E00E94DB0EE7CF512C312C46
:101A400020E02032A0F48B3269F030F4803259F07B
:101A5000833269F420612CC08D3239F0803339F43F
:101A6000216026C02260246023C0286021C027FD99
:101A700027C030ED380F3A3078F426FF06C0FAE080
:101A80005F9E300D1124532E13C08AE0389E300D16
:101A90001124332E20620CC08E3221F426FD6BC13E
:101AA000206406C08C3611F4206802C0883641F4E8
:101AB000F60193FD859193FF81916F018111C1CF53
:101AC000982F9F7D9554933028F40C5F1F4FFFE3B0
:101AD000F9830DC0833631F0833771F0833509F017
:101AE0005BC022C0F801808189830E5F1F4F4424B0
:101AF0004394512C540115C03801F2E06F0E711C53
:101B0000F801A080B18026FF03C0652D70E002C0FF
:101B10006FEF7FEFC5012C870E94D00E2C0183014F
:101B20002C852F77222E17C03801F2E06F0E711C22
:101B3000F801A080B18026FF03C0652D70E002C0CF
:101B40006FEF7FEFC5012C870E94C50E2C012C85FD
:101B50002068222E830123FC1BC0832D90E04816B1
:101B60005906B0F4B70180E290E00E94DB0E3A948F
:101B7000F4CFF50127FC859127FE81915F01B70124
:101B800090E00E94DB0E31103A94F1E04F1A5108B8
:101B90004114510471F7E5C0843611F0893639F5E6
:101BA000F80127FF07C060817181828193810C5FFA
:101BB0001F4F08C060817181072E000C880B990BA4
:101BC0000E5F1F4F2F76722E97FF09C0909580955C
:101BD000709561957F4F8F4F9F4F2068722E2AE03E
:101BE00030E0A4010E94130FA82EA81844C0853726
:101BF00029F42F7EB22E2AE030E025C0F22FF97FA3
:101C0000BF2E8F36C1F018F4883579F0B4C0803714
:101C100019F0883721F0AFC02F2F2061B22EB4FE0B
:101C20000DC08B2D8460B82E09C024FF0AC09F2FE1
:101C30009660B92E06C028E030E005C020E130E013
:101C400002C020E132E0F801B7FE07C06081718177
:101C5000828193810C5F1F4F06C06081718180E09B
:101C600090E00E5F1F4FA4010E94130FA82EA8182A
:101C7000FB2DFF777F2E76FE0BC0372D3E7FA51400
:101C800050F474FE0AC072FC08C0372D3E7E05C0B9
:101C9000BA2C372D03C0BA2C01C0B52C34FF0DC0AF
:101CA000FE01EA0DF11D8081803311F4397E09C0F7
:101CB00032FF06C0B394B39404C0832F867809F032
:101CC000B39433FD13C030FF06C05A2CB31418F47C
:101CD000530C5B18B32CB31468F4B70180E290E0A6
:101CE0003C870E94DB0EB3943C85F5CFB31410F40F
:101CF0003B1801C0312C34FF12C0B70180E390E0E3
:101D00003C870E94DB0E3C8532FF17C031FD03C0CB
:101D100088E790E002C088E590E0B7010CC0832F0F
:101D2000867859F031FF02C08BE201C080E237FDB6
:101D30008DE2B70190E00E94DB0EA51438F4B701E4
:101D400080E390E00E94DB0E5A94F7CFAA94F4014E
:101D5000EA0DF11D8081B70190E00E94DB0EA11019
:101D6000F5CF332009F451CEB70180E290E00E9414
:101D7000DB0E3A94F6CFF7018681978102C08FEF90
:101D80009FEF2C96E2E10C940D0BFC010590615045
:101D900070400110D8F7809590958E0F9F1F089581
:101DA000FC016150704001900110D8F7809590952A
:101DB0008E0F9F1F08950F931F93CF93DF93FB0107
:101DC000238121FD03C08FEF9FEF28C022FF16C0A3
:101DD00046815781248135814217530744F4A081FD
:101DE000B1819D012F5F3F4F318320838C932681EA
:101DF00037812F5F3F4F3783268310C0EB01092FB8
:101E0000182F0084F185E02D0995892BE1F68E814C
:101E10009F8101969F838E83812F902FDF91CF9199
:101E20001F910F910895FA01AA27283051F120310E
:101E300081F1E8946F936E7F6E5F7F4F8F4F9F4F5E
:101E4000AF4FB1E03ED0B4E03CD0670F781F891FA0
:101E50009A1FA11D680F791F8A1F911DA11D6A0F6E
:101E6000711D811D911DA11D20D009F468943F9121
:101E70002AE0269F11243019305D3193DEF6CF0120
:101E80000895462F4770405D4193B3E00FD0C9F7E6
:101E9000F6CF462F4F70405D4A3318F0495D31FD53
:101EA0004052419302D0A9F7EACFB4E0A6959795A6
:101EB000879577956795BA95C9F70097610571057C
:101EC00008959B01AC010A2E0694579547953795C6
:101ED0002795BA95C9F7620F731F841F951FA01D20
:061EE0000895F894FFCF05
:101EE6002F012F01000000009C0103013401E301D2
:101EF600650143015701564D4450565F317C315FB1
:101F0600564D4450560D0A00564D4450455F003A12
:101F1600323A007C005F564D4450450054696D6569
:101F2600203D20253032643A253032643A2530325D
:101F3600642C20004461746528646179206F6620F2
:101F46006D6F6E746829203D2025642C204D6F6EC0
:101F56007468203D2025642C2044617928646179C9
:101F6600206F66207765656B29203D2025642C202F
:101F760059656172203D202564006E616E00696EB0
:061F860066006F766600A4
:107800000C94343C0C94513C0C94513C0C94513CE1
:107810000C94513C0C94513C0C94513C0C94513CB4
:107820000C94513C0C94513C0C94513C0C94513CA4
:107830000C94513C0C94513C0C94513C0C94513C94
:107840000C94513C0C94513C0C94513C0C94513C84
:107850000C94513C0C94513C0C94513C0C94513C74
:107860000C94513C0C94513C11241FBECFEFD8E036
:10787000DEBFCDBF11E0A0E0B1E0ECE9FFE702C060
:1078800005900D92A230B107D9F712E0A2E0B1E065
:1078900001C01D92AD30B107E1F70E942D3D0C945F
:1078A000CC3F0C94003C982F959595959595959582
:1078B000905D8F708A307CF0282F295A8091C0000B
:1078C00085FFFCCF9093C6008091C00085FFFCCF60
:1078D0002093C6000895282F205DF0CF982F809127
:1078E000C00085FFFCCF9093C6000895EF92FF92F1
:1078F0000F931F93EE24FF2487018091C00087FD22
:1079000017C00894E11CF11C011D111D81E4E8164B
:1079100082E4F8068FE0080780E0180770F3E09132
:107920000401F091050109958091C00087FFE9CF1E
:107930008091C6001F910F91FF90EF9008950E94D3
:10794000763C982F8091C00085FFFCCF9093C600B5
:1079500091362CF490330CF09053892F089597555D
:10796000892F08951F930E949F3C182F0E949F3CCF
:107970001295107F810F1F9108951F93182F882350
:1079800021F00E94763C1150E1F71F9108951F935A
:10799000182F0E94763C803249F0809103018F5F5E
:1079A000809303018530C1F01F9108958091C0003C
:1079B00085FFFCCF84E18093C6008091C00085FFE5
:1079C000FCCF1093C6008091C00085FFFCCF80E102
:1079D0008093C6001F910895E0910401F091050184
:1079E00009951F9108950E94763C803241F0809164
:1079F00003018F5F80930301853081F008958091AA
:107A0000C00085FFFCCF84E18093C6008091C00058
:107A100085FFFCCF80E18093C6000895E0910401CA
:107A2000F09105010995089540E951E08823A1F0FE
:107A30002D9A28EE33E0FA013197F1F721503040CA
:107A4000D1F72D9828EE33E0FA013197F1F7215064
:107A50003040D1F7815061F708953F924F925F9285
:107A60006F927F928F929F92AF92BF92CF92DF924E
:107A7000EF92FF920F931F93CF93DF93000080E16B
:107A80008093C4001092C50088E18093C10086E015
:107A90008093C2005098589A259A81E00E94143D24
:107AA00024E1F22E9EE1E92E85E9D82E0FE0C02ECA
:107AB00010E1B12EAA24A394B1E49B2EA6E58A2E50
:107AC000F2E57F2EE0E26E2E79E4572E63E5462E36
:107AD00050E5352E0E94763C8033B1F18133B9F107
:107AE000803409F46FC0813409F476C0823409F41B
:107AF00085C0853409F488C0803531F1823521F1A3
:107B0000813511F1853509F485C0863509F48DC0BC
:107B1000843609F496C0843709F403C1853709F423
:107B200072C1863709F466C0809103018F5F80932C
:107B30000301853079F6E0910401F0910501099582
:107B40000E94763C803351F60E94F33CC3CF0E94E2
:107B5000763C803249F78091C00085FFFCCFF092DF
:107B6000C6008091C00085FFFCCF9092C600809136
:107B7000C00085FFFCCF8092C6008091C00085FFC9
:107B8000FCCF7092C6008091C00085FFFCCF609250
:107B9000C6008091C00085FFFCCF5092C600809146
:107BA000C00085FFFCCF4092C6008091C00085FFD9
:107BB000FCCF3092C6008091C00085FFFCCFB09210
:107BC000C60088CF0E94763C863808F4BDCF0E945C
:107BD000763C0E94F33C7ECF0E94763C803809F4CC
:107BE0009CC0813809F40BC1823809F43CC1883942
:107BF00009F48FC080E00E94C73C6CCF84E10E94F2
:107C0000BD3C0E94F33C66CF85E00E94BD3C0E94D3
:107C1000F33C60CF0E94763C809306010E94763C44
:107C2000809307010E94F33C55CF0E94763C80333D
:107C300009F41DC183E00E94BD3C80E00E94C73C66
:107C400049CF0E94763C809309020E94763C809343
:107C5000080280910C028E7F80930C020E94763C79
:107C6000853409F415C18091080290910902892B8D
:107C700089F000E010E00E94763CF801E85FFE4FDA
:107C800080830F5F1F4F80910802909109020817AF
:107C9000190788F30E94763C803209F045CF809125
:107CA0000C0280FF01C16091060170910701660F0F
:107CB000771F7093070160930601A0910802B091AD
:107CC00009021097C9F0E8E0F1E09B01AD014E0F09
:107CD0005F1FF999FECF32BD21BD819180BDFA9A17
:107CE000F99A2F5F3F4FE417F50799F76A0F7B1F4B
:107CF00070930701609306018091C00085FFFCCF5F
:107D0000F092C6008091C00085FFFCCFB092C60003
:107D1000E1CE83E00E94C73CDDCE82E00E94C73CFA
:107D2000D9CE0E94763C809309020E94763C8093D3
:107D300008028091060190910701880F991F909386
:107D40000701809306010E94763C853409F4A6C0A1
:107D500080910C028E7F80930C020E94763C8032D0
:107D600009F0B8CE8091C00085FFFCCFF092C6002C
:107D7000609108027091090261157105B9F140E046
:107D800050E080910C02A82FA170B82FB27011C0E2
:107D9000BB2309F45CC0E0910601F0910701319624
:107DA000F0930701E09306014F5F5F4F46175707B7
:107DB000E8F4AA2369F3F999FECF209106013091E6
:107DC000070132BD21BDF89A90B58091C00085FFB2
:107DD000FCCF9093C6002F5F3F4F30930701209355
:107DE00006014F5F5F4F4617570718F38091C00099
:107DF00085FDE5CE8091C00085FFF8CFE0CE81E023
:107E00000E94C73C67CE0E94763C803209F08CCE3F
:107E10008091C00085FFFCCFF092C6008091C00029
:107E200085FFFCCFE092C6008091C00085FFFCCFAB
:107E3000D092C6008091C00085FFFCCFC092C600E2
:107E40008091C00085FFFCCFB092C60043CEE09188
:107E50000601F091070194918091C00085FFFCCF4D
:107E60009093C6009CCF80E10E94C73C33CE0E9415
:107E7000763C0E94763C182F0E94763C112309F430
:107E800083C0113009F484C08FE00E94C73C22CE29
:107E900080910C02816080930C02E5CE80910C02EF
:107EA000816080930C0259CF809107018823880F4D
:107EB000880B8A2180930B02809106019091070123
:107EC000880F991F90930701809306018091080203
:107ED00080FF09C080910802909109020196909359
:107EE000090280930802F894F999FECF1127E091D6
:107EF0000601F0910701C8E0D1E08091080290915D
:107F00000902103091F40091570001700130D9F34B
:107F100003E000935700E89500915700017001308D
:107F2000D9F301E100935700E89509901990009169
:107F3000570001700130D9F301E000935700E89534
:107F40001395103498F011270091570001700130FB
:107F5000D9F305E000935700E895009157000170B0
:107F60000130D9F301E100935700E895329602976A
:107F700009F0C7CF103011F00296E5CF112480919F
:107F8000C00085FFB9CEBCCE8EE10E94C73CA2CD19
:0C7F900085E90E94C73C9ECDF894FFCF0D
:027F9C00800063
:040000030000780081
:00000001FF